S00A00006D61696E5F626E21
S11320008E41F3BD25A8BD25A0CE421C3C862636B4
S1132010BD2442313131BD245AB741F4CE50003C85
S1132020B641F436CE5F003C862436BD23363131CA
S113203031313131BD246FB741F5F741F6B641F581
S113204036F641F637CE421C3CB641F436BD23C1C8
S1132050313131313125BFB641F436BD261231B6A6
S113206041F536F641F637CE50003CF641F437BD23
S1132070235F3131313132CE421C3C36B641F53624
S1132080F641F637CE50003CF641F437BD20CE3150
S113209031313131313131CE50003CB641F436CE9C
S11320A05F003C862436BD2336313131313131CEA7
S11320B0421C3CB641F436BD23F431313281092748
S11320C0037E2016B641F436BD25F43120FE3637A2
S11320D03C183C30A60D84C02620C60837E60C37D1
S11320E0E60B371AEE09183CE60837BD2390313168
S11320F03131313118383833323981402636C650BF
S113210037E60C37E60B371AEE09183CE60837BDFC
S11321102390313131313131E60C37E60B371AEE89
S11321200E183CE60837BD241831313131311838E6
S113213038333239E60BC106276DE60C37E60B5C03
S1132140371AEE0E183CE60837BD23C13131313160
S1132150312454C69037E60C37E60B371AEE0918CB
S11321603CE60837BD23903131313131316C0BC637
S11321709037E60C37E60B371AEE09183CE60837B9
S1132180BD23903131313131316A0BE60C37E60B26
S1132190371AEE0E183CE60837BD241831313131B8
S11321A031183838333239E60BC101276DE60C3764
S11321B0E60B5A371AEE0E183CE60837BD23C13138
S11321C0313131312454C69037E60C37E60B371AD7
S11321D0EE09183CE60837BD2390313131313131F5
S11321E06A0BC69037E60C37E60B371AEE09183C33
S11321F0E60837BD23903131313131316C0BE60CB7
S113220037E60B371AEE0E183CE60837BD241831B2
S113221031313131183838333239E60CC10A276D7F
S1132220E60C5A37E60B371AEE0E183CE60837BDB3
S113223023C131313131312454C69037E60C37E6AD
S11322400B371AEE09183CE60837BD2390313131BB
S11322503131316A0CC69037E60C37E60B371AEE8B
S113226009183CE60837BD23903131313131316CE6
S11322700CE60C37E60B371AEE0E183CE60837BDB1
S113228024183131313131183838333239E60CC140
S11322900F276DE60C5C37E60B371AEE0E183CE69A
S11322A00837BD23C131313131312454C69037E66A
S11322B00C37E60B371AEE09183CE60837BD2390B5
S11322C03131313131316C0CC69037E60C37E60BC5
S11322D0371AEE09183CE60837BD23903131313105
S11322E031316A0CE60C37E60B371AEE0E183CE671
S11322F00837BD2418313131313118383833323987
S1132300C6B037E60C37E60B371AEE09183CE60878
S113231037BD2390313131313131E60C37E60B379B
S11323201AEE0E183CE60837BD241831313131312C
S113233018383833323936373C183C30A60BE608A7
S11323403DE30CED0CA60C27101AEE09EE0CE6008A
S113235018E7000818084A26F51838383332393691
S1132360373C183C30A608C6243DE309ED09A60C09
S1132370C60A10C6063DE309ED09E60B5A4FE30908
S1132380ED091AEE0918A600A70C183838333239AB
S113239036373C183C30A608C6243DE309ED09A6AF
S11323A00CC60A10C6063DE309ED09E60B5A4FE3D5
S11323B009ED091AEE09A60D18A7001838383332AA
S11323C03936373C183C30A608C6133DE309188F4C
S11323D018A6002718A10C27061808180820F118B9
S11323E0E60118081808E10B26E60D20010C183840
S11323F03833323936373C183C30A608C6133DE32F
S113240009188F4F18E6002707180818084C20F4FD
S1132410A70A18383833323936373C183C30A60806
S1132420C6133DE309188F18A6002704180820F7DF
S1132430A60C18A7001808A60B18A70018383833DC
S1132440323936373C183C30A608EE09D600E7008E
S1132450084A26FA183838333239BD251F4D2BFA6D
S113246081032708810726F2860020028601393C71
S1132470183C3636361830B610008840B71000863F
S11324800318A700CE41F98604C620BD25E9BD2561
S1132490D886FFB741F8BD251F4D2BFAB141F82767
S11324A0F5B741F8810F27D7810327D3810727CFB9
S11324B0186A00272736CE41FE163AA600183C18A3
S11324C0E600183A18A700183833BD25C817CE41BE
S11324D0F9BD25B8CE41F9BD250B20BA810B269F45
S11324E018A602810A2598810F229418A601810159
S11324F0258D81062289B610008840B7100032323B
S11325003218A60218E601183838393C3736C604A2
S11325105A2B08A600BD25D10820F5323338393CA2
S113252037308F8300018F35308F8300018F353032
S11325308F8300018F35308F8300018F3530C604BF
S1132540860EA7038610A7024FA701A70086FF5A8D
S11325502B2CA603B710030D49A7038604A70186F5
S113256010A7026A012BE6B61005A402270748A7A4
S1132570026C0020EEA600B141F7260286FFB741A7
S1132580F7308FC300018F35308FC300018F353092
S11325908FC300018F35308FC300018F3533383935
S11325A03686FFB741F7323936860FB71007B610B3
S11325B00284FEB7100232393C37E6012705E700F2
S11325C00820F7A7003338393CCE420D3AE60038EC
S11325D039F71005B71004393736C6045A2B078665
S11325E020BD25D120F63233394A2705E7000820DB
S11325F0F8E7003936373C183C30A6082708CE42A5
S113260042BD250B2006CE4247BD250B1838383372
S1132610323936373C183C30A6082708CE424CBD28
S1132620250B20E8CE4250BD250B183838333239FB
S11341F920202020000A0B0C000D0E0F00010203E1
S11342090004050641424320444546203132332007
S1064219343536FF
S113424257494E310057494E320050310000503226
S1054252000066
S113500003030303030303038303830303038303EC
S1135010830303830303030303830343034303035C
S1135020030343030303830303030303830303030C
S113503003430303830303030303830303034303BC
S10B504003038383030303430C
S1135F00030303030303030303030303030303035D
S1135F10030303030303030303030303030303034D
S1075F20030303036D
S9030000FC
