S00A00006D61696E5F626E21
S11320008E4257BD29ABBD29A3CE42843C863E36C1
S1132010BD2841313131BD26DEB6425BF6425C5803
S11320201BB7425DB6425C36B6425B36CE50003CCE
S1132030BD210631313131B6425C36B6425B36CE13
S11320405000C6243A3CBD210631313131BD2859F6
S1132050B74258CE50003CB6425836CE5F003C865C
S11320602436BD2735313131313131BD286EB74287
S113207059F7425AB6425936F6425A37CE42843C50
S1132080B6425836BD27C0313131313125BFB64251
S11320905836BD2A1531B6425936F6425A37CE5013
S11320A0003CF6425837BD275E3131313132CE42E1
S11320B0843C36B6425936F6425A37CE50003CF686
S11320C0425837BD24763131313131313131CE503E
S11320D0003CB6425836CE5F003C862436BD2735D8
S11320E0313131313131CE42843CB6425836BD278C
S11320F0F3313132B1425D27037E204DB64258366A
S1132100BD29F73120FE36373C183C363636363694
S11321101830186F03186F0218A60F18E6101B1852
S1132120A704CE42E086C8C600BD29ECCE43A886EB
S113213008C600BD29EC18A60318A10426037E24B2
S11321404D18A10F240CCE43B0860518E6033D3A82
S1132150200FCE43C918A60318E60F101686053DB6
S11321603ABD290EBD29224D2BFA810F26F6BD2832
S11321706E18A70018E7013637CE42E03C4F36BD53
S113218027C03238333225E63618A60318A10F3299
S113219025037E22534D260286FF5D2602C6FF36A6
S11321A037CE42E03C4F36BD2817323833324C4DDF
S11321B0260286FF5D2602C6FF3637CE42E03C4F3C
S11321C036BD2817323833324A5C4D260286FF5D0D
S11321D02602C6FF3637CE42E03C4F36BD281732C2
S11321E03833324A5A4D260286FF5D2602C6FF3630
S11321F037CE42E03C4F36BD2817323833324C5A82
S11322004D260286FF5D2602C6FF3637CE42E03CED
S11322104F36BD28173238333286403618A600367A
S113222018E60137CDEE0D3C4F36BD278F323833DB
S11322303232186C03183CCDEE0D3C4F3618CE5F8D
S113224000183C862436BD27353218383238183801
S11322507E2136186D0227037E232D4C3637CE435C
S1132260A83C4F36BD2817323833324A5C3637CE55
S113227043A83C4F36BD2817323833324A5A3637D2
S1132280CE43A83C4F36BD2817323833324C5A3629
S113229037CE43A83C4F36BD281732383332183C6A
S11322A018CE43A8C6045A2B3518A600810A25283F
S11322B0810F222418A6018101251D8106221937C8
S11322C018A60018E6013637CE42E03C4F36BD274B
S11322D0C0323833323324151808180820C8183887
S11322E0CE43A88608C600BD29EC7E216E18381896
S11322F0A60018E6014D260286FF5D2602C6FF36BB
S113230037CE42E03C4F36BD281732383332186C92
S11323100286803618A6003618E60137CDEE0D3C4D
S11323204F36BD278F32383332327E216ECE43A8EA
S113233086044A2A037E216EE60018E1002609E697
S11323400118E10126022004080820E6183C18CEF2
S113235043A8C6045A2B233718A60018E6014D26B5
S11323600286FF5D2602C6FF3637CE42E03C4F367A
S1132370BD2817323833323320DA183818A600183B
S1132380E6014D260286FF5D2602C6FF3637CE42A1
S1132390E03C4F36BD2817323833324C4D26028686
S11323A0FF5D2602C6FF3637CE42E03C4F36BD28DD
S11323B017323833324A5C4D260286FF5D2602C648
S11323C0FF3637CE42E03C4F36BD28173238333221
S11323D04A5A4D260286FF5D2602C6FF3637CE4294
S11323E0E03C4F36BD2817323833324C5A4D260262
S11323F086FF5D2602C6FF3637CE42E03C4F36BD2F
S113240028173238333286803618A6003618E6018B
S113241037CDEE0D3C4F36BD278F3238333232186C
S11324206C03186F02CE43A88608C600BD29EC18B9
S11324303CCDEE0D3C4F3618CE5F00183C8624365A
S1132440BD2735321838323818387E2136CDEE0D96
S11324508624E600C4C0CA03E700084A26F4CE5F17
S1132460008624C603E700084A26FA3232323232A2
S113247018383833323936373C183C30A60D84C00E
S11324802620C60837E60C37E60B371AEE09183C47
S1132490E60837BD278F31313131313118383833BF
S11324A0323981402636C67037E60C37E60B371AC8
S11324B0EE09183CE60837BD278F3131313131310F
S11324C0E60C37E60B371AEE0E183CE60837BD2843
S11324D0173131313131183838333239E60BC1060E
S11324E0276DE60C37E60B5C371AEE0E183CE6084F
S11324F037BD27C031313131312454C6B037E60CF1
S113250037E60B371AEE09183CE60837BD278F313A
S113251031313131316C0BC6B037E60C37E60B374D
S11325201AEE09183CE60837BD278F3131313131B5
S1132530316A0BE60C37E60B371AEE0E183CE60848
S113254037BD28173131313131183838333239E653
S11325500BC101276DE60C37E60B5A371AEE0E183D
S11325603CE60837BD27C031313131312454C6B07F
S113257037E60C37E60B371AEE09183CE60837BD88
S1132580278F3131313131316A0BC6B037E60C3720
S1132590E60B371AEE09183CE60837BD278F3131B0
S11325A0313131316C0BE60C37E60B371AEE0E186D
S11325B03CE60837BD28173131313131183838330A
S11325C03239E60CC10A276DE60C5A37E60B371A86
S11325D0EE0E183CE60837BD27C0313131313124C5
S11325E054C6B037E60C37E60B371AEE09183CE64A
S11325F00837BD278F3131313131316A0CC6B037DC
S1132600E60C37E60B371AEE09183CE60837BD2707
S11326108F3131313131316C0CE60C37E60B371A1E
S1132620EE0E183CE60837BD281731313131311828
S11326303838333239E60CC10F276DE60C5C37E6C7
S11326400B371AEE0E183CE60837BD27C03131317E
S113265031312454C6B037E60C37E60B371AEE098D
S1132660183CE60837BD278F3131313131316C0CDC
S1132670C6B037E60C37E60B371AEE09183CE60805
S113268037BD278F3131313131316A0CE60C37E6F1
S11326900B371AEE0E183CE60837BD2817313131D6
S11326A03131183838333239C6B837E60C37E60BCF
S11326B0371AEE09183CE60837BD278F313131311E
S11326C03131E60C37E60B371AEE0E183CE60837C4
S11326D0BD28173131313131183838333239363772
S11326E03C183CCE42D6BD290EBD29224D2BF436D2
S11326F0BD29224D2BFA810B26F632CE4265163ABD
S1132700A600810522DDB7425BCE42DBBD290EBDAA
S113271029224D2BF436BD29224D2BFA810B26F6A6
S113272032CE4265163AA600810522DDB7425C1816
S1132730383833323936373C183C30A60BE6083D7E
S1132740E30CED0CA60827101AEE09EE0CE60018AF
S1132750E7000818084A26F518383833323936376E
S11327603C183C30A608C6243DE309ED09A60CC676
S11327700A10C6063DE309ED09E60B5A4FE309EDDD
S1132780091AEE0918A600A70C183838333239365E
S1132790373C183C30A608C6243DE309ED09A60CD5
S11327A0C60A10C6063DE309ED09E60B5A4FE309D4
S11327B0ED091AEE09A60D18A70018383833323976
S11327C036373C183C30A608C61F3DE309188F185D
S11327D0A6002718A10C27061808180820F118E6E7
S11327E00118081808E10B26E60D20010C183838EA
S11327F033323936373C183C30A608C61F3DE3094E
S1132800188F4F18E6002707180818084C20F4A75B
S11328100A18383833323936373C183C30A608C6E3
S11328201F3DE309188F18A6002704180820F7A6EF
S11328300C18A7001808A60B18A70018383833324C
S11328403936373C183C30A608EE09D600E70008B4
S11328504A26FA183838333239BD29224D2BFA81E9
S1132860032708810726F2860020028601393C18D6
S11328703C3636361830B610008840B71000860350
S113288018A700CE42608604C620BD29ECBD29DB12
S113289086FFB7425FBD29224D2BFAB1425F27F56F
S11328A0B7425F810F27D7810327D3810727CF182A
S11328B06A00272B810B27C636CE4265163AA6003E
S11328C0183C18E600183A18A700183833BD29CB6D
S11328D017CE4260BD29BBCE4260BD290E20B68111
S11328E00B269B18A602810A2594810F229018A614
S11328F0018101258981062285B610008840B71020
S11329000032323218A60218E601183838393C373A
S113291036C6045A2B08A600BD29D40820F5323344
S113292038393C37308F8300018F35308F83000175
S11329308F35308F8300018F35308F8300018F35C1
S113294030C604860EA7038610A7024FA701A7006E
S113295086FF5A2B2CA603B710030D49A703860440
S1132960A7018610A7026A012BE6B61005A4022768
S11329700748A7026C0020EEA600B1425E2602863C
S1132980FFB7425E308FC300018F35308FC3000123
S11329908F35308FC300018F35308FC300018F35E1
S11329A03338393686FFB7425E323936860FB71070
S11329B007B6100284FEB7100232393C37E601270D
S11329C005E7000820F7A7003338393CCE42753AB2
S11329D0E6003839F71005B71004393736C6045AFB
S11329E02B078620BD29D420F63233394A2705E740
S11329F0000820F8E7003936373C183C30A6082791
S1132A0008CE42C2BD290E2006CE42C7BD290E18EB
S1132A10383833323936373C183C30A6082708CECC
S1132A2042CCBD290E20E8CE42D1BD290E1838383B
S1062A3033323901
S113426020202020000A0B0CFF0D0E0FFF0102037B
S1134270FF040506FF4142432044454620313233C2
S10742802034353677
S11342C257494E310057494E32002D50312D002DA1
S11142D250322D005355424D004341524700D7
S11343B05355423100535542320053554233005352
S11343C05542340053554235004341523100434174
S11043D05232004341523300434152340045
S1135000030303030303030303030303030303036C
S1135010030303030303030303030303030303035C
S1135020030303030303030303030303030303034C
S1135030030303030303030303030303030303033C
S10B504003030303030303034C
S1135F00030303030303030303030303030303035D
S1135F10030303030303030303030303030303034D
S1075F20030303036D
S9030000FC
