S00A00006D61696E5F626E21
S11320008E41F3BD2571BD2569CE421C3C86263622
S1132010BD24138601B741F4BD2440B741F5F7410F
S1132020F6CE421C3CB641F536F641F637B641F4DD
S113203036BD2392255C3131313131B641F536F666
S113204041F637CE50003CF641F437BD23303131F0
S1132050313132CE421C3C36B641F536F641F637C4
S1132060CE50003CF641F437BD209F31313131313F
S1132070313131CE50003CB641F436CE5F003C865F
S11320802436BD2307CE421C3CB641F436BD23C5DD
S11320902509BD242BB741F47E201820FE20FE36EE
S11320A0373C183C30A60D84C02620C60837E60C01
S11320B037E60B371AEE09183CE60837BD236131C1
S11320C0313131313118383833323981402636C60E
S11320D05037E60C37E60B371AEE09183CE608379A
S11320E0BD2361313131313131E60C37E60B371A1A
S11320F0EE0E183CE60837BD23E931313131311891
S11321003838333239E60BC106276DE60C37E60B57
S11321105C371AEE0E183CE60837BD239231313194
S113212031312454C69037E60C37E60B371AEE09E2
S1132130183CE60837BD23613131313131316C0B44
S1132140C69037E60C37E60B371AEE09183CE6085A
S113215037BD23613131313131316A0BE60C37E659
S11321600B371AEE0E183CE60837BD23E93131313E
S11321703131183838333239E60BC101276DE60C9A
S113218037E60B5A371AEE0E183CE60837BD239291
S113219031313131312454C69037E60C37E60B37F0
S11321A01AEE09183CE60837BD236131313131316B
S11321B0316A0BC69037E60C37E60B371AEE09186E
S11321C03CE60837BD23613131313131316C0BE6E6
S11321D00C37E60B371AEE0E183CE60837BD23E938
S11321E03131313131183838333239E60CC10A27EC
S11321F06DE60C5A37E60B371AEE0E183CE6083734
S1132200BD239231313131312454C69037E60C3735
S1132210E60B371AEE09183CE60837BD2361313165
S1132220313131316A0CC69037E60C37E60B371A78
S1132230EE09183CE60837BD2361313131313131C3
S11322406C0CE60C37E60B371AEE0E183CE6083732
S1132250BD23E93131313131183838333239E60CA4
S1132260C10F276DE60C5C37E60B371AEE0E183CEF
S1132270E60837BD239231313131312454C69037C9
S1132280E60C37E60B371AEE09183CE60837BD238F
S1132290613131313131316C0CC69037E60C37E69F
S11322A00B371AEE09183CE60837BD23613131318A
S11322B03131316A0CE60C37E60B371AEE0E183C56
S11322C0E60837BD23E9313131313118383833323A
S11322D039C6B037E60C37E60B371AEE09183CE678
S11322E00837BD2361313131313131E60C37E60B2A
S11322F0371AEE0E183CE60837BD23E93131313187
S11323003118383833323936373C183C30A60BE6AE
S1132310083DE30CED0CA60C27101AEE09EE0CE6B2
S11323200018E7000818084A26F5183838333239F7
S113233036373C183C30A608C6243DE309ED09A60F
S11323400CC60A10C6063DE309ED09E60B5A4FE335
S113235009ED091AEE0918A600A70C18383833320B
S11323603936373C183C30A608C6243DE309ED094C
S1132370A60CC60A10C6063DE309ED09E60B5A4F42
S1132380E309ED091AEE09A60D18A7001838383329
S1132390323936373C183C30A608C6133DE30918D9
S11323A08F18A6002718A10C27061808180820F172
S11323B018E60118081808E10B26E60D20010C1890
S11323C0383833323936373C183C30A608C6133D0A
S11323D0E309188F4F18E6002707180818084C203F
S11323E0F4A70A18383833323936373C183C30A64B
S11323F008C6133DE309188F18A6002704180820FF
S1132400F7A60C18A7001808A60B18A70018383848
S113241033323936373C183C30A608EE09D600E78B
S113242000084A26FA183838333239BD24E84D2BCF
S1132430FA81032708810726F286012002860039E3
S11324403C183C3636361830B610008840B71000B9
S1132450860318A700CE41F98604C620BD25B2BD67
S113246025A186FFB741F8BD24E84D2BFAB141F808
S113247027F5B741F8810F27D7186A00272736CEEA
S113248041FE163AA600183C18E600183A18A700B0
S1132490183833BD259117CE41F9BD2581CE41F9B8
S11324A0BD24D420C2810B26A718A602810A25A028
S11324B0810F229C18A6018101259581062291B6DF
S11324C010008840B7100032323218A60218E60114
S11324D0183838393C3736C6045A2B08A600BD25AF
S11324E09A0820F5323338393C37308F8300018F16
S11324F035308F8300018F35308F8300018F353065
S11325008F8300018F3530C604860EA7038610A77B
S1132510024FA701A70086FF5A2B2CA603B710036E
S11325200D49A7038604A7018610A7026A012BE6BA
S1132530B61005A402270748A7026C0020EEA600E7
S1132540B141F7260286FFB741F7308FC300018FF0
S113255035308FC300018F35308FC300018F353084
S11325608FC300018F353338393686FFB741F732D0
S11325703936860FB71007B6100284FEB710023240
S1132580393C37E6012705E7000820F7A700333870
S1132590393CCE420D3AE6003839F71005B710043D
S11325A0393736C6045A2B078620BD259A20F632C1
S11025B033394A2705E7000820F8E7003911
S11341F920202020000A0B0C000D0E0F00010203E1
S11342090004050641424320444546203132332007
S1064219343536FF
S1135000838303830343030303830303030303032C
S1135010030303030303838343030303030303031C
S1135020430303030383038383030383030303030C
S113503003030383830303030303030303034303FC
S10B50400303034303430303CC
S1135F00030303030303030303030303030303035D
S1135F10030303030303030303030303030303034D
S1075F20030303036D
S9030000FC
