S00A00006D61696E5F626E21
S11320008E41F3BD2606BD25FECE42203C863636E3
S1132010BD24A0313131BD2345B641F7F641F8580E
S11320201BB741F9BD24B8B741F4CE50003CB641CA
S1132030F436CE5F003C862436BD239431313131F1
S11320403131BD24CDB741F5F741F6B641F536F649
S113205041F637CE42203CB641F436BD241F31311F
S113206031313125BFB641F436BD267031B641F564
S113207036F641F637CE50003CF641F437BD23BD69
S11320803131313132CE42203C36B641F536F6415B
S1132090F637CE50003CF641F437BD20DD31313106
S11320A03131313131CE50003CB641F436CE5F008F
S11320B03C862436BD2394313131313131CE422036
S11320C03CB641F436BD2452313132B141F92703D3
S11320D07E2024B641F436BD26523120FE36373CEC
S11320E0183C30A60D84C02620C60837E60C37E617
S11320F00B371AEE09183CE60837BD23EE313131AF
S113210031313118383833323981402636C65037A8
S1132110E60C37E60B371AEE09183CE60837BD2300
S1132120EE313131313131E60C37E60B371AEE0E30
S1132130183CE60837BD247631313131311838384E
S1132140333239E60BC106276DE60C37E60B5C37F4
S11321501AEE0E183CE60837BD241F3131313131F7
S11321602454C69037E60C37E60B371AEE09183CB0
S1132170E60837BD23EE3131313131316C0BC69075
S113218037E60C37E60B371AEE09183CE60837BD7C
S113219023EE3131313131316A0BE60C37E60B373E
S11321A01AEE0E183CE60837BD2476313131313150
S11321B0183838333239E60BC101276DE60C37E69F
S11321C00B5A371AEE0E183CE60837BD241F31317E
S11321D03131312454C69037E60C37E60B371AEE0A
S11321E009183CE60837BD23EE3131313131316A0B
S11321F00BC69037E60C37E60B371AEE09183CE6A7
S11322000837BD23EE3131313131316C0BE60C37F7
S1132210E60B371AEE0E183CE60837BD247631314A
S1132220313131183838333239E60CC10A276DE6BA
S11322300C5A37E60B371AEE0E183CE60837BD2465
S11322401F31313131312454C69037E60C37E60B57
S1132250371AEE09183CE60837BD23EE3131313127
S113226031316A0CC69037E60C37E60B371AEE09A3
S1132270183CE60837BD23EE3131313131316C0C75
S1132280E60C37E60B371AEE0E183CE60837BD2489
S1132290763131313131183838333239E60CC10FE7
S11322A0276DE60C5C37E60B371AEE0E183CE60891
S11322B037BD241F31313131312454C69037E60CF7
S11322C037E60B371AEE09183CE60837BD23EE3122
S11322D031313131316C0CC69037E60C37E60B37AF
S11322E01AEE09183CE60837BD23EE31313131319D
S11322F0316A0CE60C37E60B371AEE0E183CE6088A
S113230037BD24763131313131183838333239C65A
S1132310B037E60C37E60B371AEE09183CE60837F7
S1132320BD23EE313131313131E60C37E60B371A4A
S1132330EE0E183CE60837BD2476313131313118C0
S1132340383833323936373C183CCE4268BD2569BB
S1132350BD257D4D2BF4B141FB27EFB741FBCE42A8
S113236001163AA600810522E1B741F7CE426CBDC1
S11323702569BD257D4D2BF4B141FB27EFB741FB0A
S1132380CE4201163AA600810422E1B741F818387A
S11323903833323936373C183C30A60BE6083DE377
S11323A00CED0CA60C27101AEE09EE0CE60018E74B
S11323B0000818084A26F518383833323936373CBD
S11323C0183C30A608C6243DE309ED09A60CC60A4C
S11323D010C6063DE309ED09E60B5A4FE309ED0982
S11323E01AEE0918A600A70C1838383332393637D4
S11323F03C183C30A608C6243DE309ED09A60CC6EA
S11324000A10C6063DE309ED09E60B5A4FE309ED50
S1132410091AEE09A60D18A70018383833323936D0
S1132420373C183C30A608C61B3DE309188F18A694
S1132430002718A10C27061808180820F118E6012F
S113244018081808E10B26E60D20010C183838335B
S1132450323936373C183C30A608C61B3DE3091810
S11324608F4F18E6002707180818084C20F4A70A0D
S113247018383833323936373C183C30A608C61B76
S11324803DE309188F18A6002704180820F7A60CA6
S113249018A7001808A60B18A700183838333239C3
S11324A036373C183C30A608EE09D600E700084A47
S11324B026FA183838333239BD257D4D2BFA81037D
S11324C02708810726F2860020028601393C183C41
S11324D03636361830B610008840B7100086031818
S11324E0A700CE41FC8604C620BD2647BD263686FD
S11324F0FFB741FBBD257D4D2BFAB141FB27F5B755
S113250041FB810F27D7810327D3810727CF186A7F
S113251000272736CE4201163AA600183C18E600DA
S1132520183A18A700183833BD262617CE41FCBD2B
S11325302616CE41FCBD256920BA810B269F18A61C
S113254002810A2598810F229418A6018101258D04
S113255081062289B610008840B710003232321842
S1132560A60218E601183838393C3736C6045A2B07
S113257008A600BD262F0820F5323338393C373001
S11325808F8300018F35308F8300018F35308F8327
S113259000018F35308F8300018F3530C604860EDD
S11325A0A7038610A7024FA701A70086FF5A2B2C6A
S11325B0A603B710030D49A7038604A7018610A735
S11325C0026A012BE6B61005A402270748A7026C8D
S11325D00020EEA600B141FA260286FFB741FA3088
S11325E08FC300018F35308FC300018F35308FC307
S11325F000018F35308FC300018F3533383936866B
S1132600FFB741FA323936860FB71007B610028485
S1132610FEB7100232393C37E6012705E7000820EF
S1132620F7A7003338393CCE42113AE6003839F77F
S11326301005B71004393736C6045A2B078620BD57
S1132640262F20F63233394A2705E7000820F8E719
S1132650003936373C183C30A6082708CE4256BD10
S113266025692006CE425BBD2569183838333239D6
S113267036373C183C30A6082708CE4260BD256991
S111268020E8CE4264BD25691838383332395B
S11341FC20202020000A0B0CFF0D0E0FFF010203E0
S113420CFF040506FF414243204445462031323326
S107421C20343536DB
S113425657494E310057494E320050310000503212
S10D426600005355424D43415247F6
S113500083830303034303038303830303038303AC
S1135010830303830303030303830343034303035C
S1135020430343038303830303438303830303038C
S113503003430303830303030303830303034303BC
S10B50400303838303430343CC
S1135F00030303030303030303030303030303035D
S1135F10030303030303030303030303030303034D
S1075F20030303036D
S9030000FC
