S00A00006D61696E5F626E21
S11320008E4257BD29B1BD29A9CE42843C863636BD
S1132010BD2847313131BD26E4B6425BF6425C58F7
S11320201BB7425DB6425C36B6425B36CE50003CCE
S1132030BD210C31313131B6425C36B6425B36CE0D
S11320405000C6243A3CBD210C31313131CE42D846
S1132050BD2914BD285FB74258CE50003CB6425843
S113206036CE5F003C862436BD273B3131313131D9
S113207031BD2874B74259F7425AB6425936F6422E
S11320805A37CE42843CB6425836BD27C631313128
S1132090313125BFB6425836BD2A1B31B6425936B6
S11320A0F6425A37CE50003CF6425837BD276431C9
S11320B031313132CE42843C36B6425936F6425A38
S11320C037CE50003CF6425837BD247C3131313193
S11320D031313131CE50003CB6425836CE5F003CEF
S11320E0862436BD273B313131313131CE42843CF7
S11320F0B6425836BD27F9313132B1425D27037EED
S11321002053B6425836BD29FD3120FE36373C18DF
S11321103C36363636361830186F03186F0218A658
S11321200F18E6101B18A704CE42DD86C8C600BDF2
S113213029F2CE43A58608C600BD29F218A60318C5
S1132140A10426037E245318A10F240CCE43AD868C
S11321500518E6033D3A200FCE43C618A60318E639
S11321600F101686053D3ABD2914BD29284D2BFABA
S1132170810F26F6BD287418A70018E7013637CE5C
S113218042DD3C4F36BD27C63238333225E6361899
S1132190A60318A10F3225037E22594D260286FF7D
S11321A05D2602C6FF3637CE42DD3C4F36BD281DC4
S11321B0323833324C4D260286FF5D2602C6FF3686
S11321C037CE42DD3C4F36BD281D323833324A5CAF
S11321D04D260286FF5D2602C6FF3637CE42DD3C21
S11321E04F36BD281D323833324A5A4D260286FFF7
S11321F05D2602C6FF3637CE42DD3C4F36BD281D74
S1132200323833324C5A4D260286FF5D2602C6FF11
S11322103637CE42DD3C4F36BD281D323833328648
S1132220403618A6003618E60137CDEE0D3C4F3681
S1132230BD27953238333232186C03183CCDEE0D7D
S11322403C4F3618CE5F00183C862436BD273B32FF
S11322501838323818387E213C186D0227037E2343
S1132260334C3637CE43A53C4F36BD281D32383368
S1132270324A5C3637CE43A53C4F36BD281D323832
S113228033324A5A3637CE43A53C4F36BD281D3229
S11322903833324C5A3637CE43A53C4F36BD281D11
S11322A032383332183C18CE43A5C6045A2B35189D
S11322B0A600810A2528810F222418A60181012560
S11322C01D810622193718A60018E6013637CE42BA
S11322D0DD3C4F36BD27C632383332332415180857
S11322E0180820C81838CE43A58608C600BD29F2B0
S11322F07E2174183818A60018E6014D260286FFC0
S11323005D2602C6FF3637CE42DD3C4F36BD281D62
S113231032383332186C0286803618A6003618E636
S11323200137CDEE0D3C4F36BD279532383332326E
S11323307E2174CE43A586044A2A037E2174E600D6
S113234018E1002609E60118E10126022004080824
S113235020E6183C18CE43A5C6045A2B233718A6EA
S11323600018E6014D260286FF5D2602C6FF3637B9
S1132370CE42DD3C4F36BD281D323833323320DAAD
S1132380183818A60018E6014D260286FF5D2602BD
S1132390C6FF3637CE42DD3C4F36BD281D323833BA
S11323A0324C4D260286FF5D2602C6FF3637CE42EA
S11323B0DD3C4F36BD281D323833324A5C4D26028F
S11323C086FF5D2602C6FF3637CE42DD3C4F36BD62
S11323D0281D323833324A5A4D260286FF5D2602C2
S11323E0C6FF3637CE42DD3C4F36BD281D3238336A
S11323F0324C5A4D260286FF5D2602C6FF3637CE82
S113240042DD3C4F36BD281D3238333286803618C3
S1132410A6003618E60137CDEE0D3C4F36BD2795A4
S11324203238333232186C03186F02CE43A5860853
S1132430C600BD29F2183CCDEE0D3C4F3618CE5FD8
S113244000183C862436BD273B32183832381838F9
S11324507E213CCDEE0D8624E600C4C0CA03E7000D
S1132460084A26F4CE5F008624C603E700084A26FD
S1132470FA323232323218383833323936373C187D
S11324803C30A60D84C02620C60837E60C37E60B80
S1132490371AEE09183CE60837BD2795313131313A
S11324A0313118383833323981402636C67037E630
S11324B00C37E60B371AEE09183CE60837BD2795AA
S11324C0313131313131E60C37E60B371AEE0E1863
S11324D03CE60837BD281D313131313118383833E5
S11324E03239E60BC106276DE60C37E60B5C371A6A
S11324F0EE0E183CE60837BD27C6313131313124A0
S113250054C6B037E60C37E60B371AEE09183CE62A
S11325100837BD27953131313131316C0BC6B037B5
S1132520E60C37E60B371AEE09183CE60837BD27E8
S1132530953131313131316A0BE60C37E60B371AFC
S1132540EE0E183CE60837BD281D31313131311803
S11325503838333239E60BC101276DE60C37E60B08
S11325605A371AEE0E183CE60837BD27C63131310A
S113257031312454C6B037E60C37E60B371AEE096E
S1132580183CE60837BD27953131313131316A0BBA
S1132590C6B037E60C37E60B371AEE09183CE608E6
S11325A037BD27953131313131316C0BE60C37E6CB
S11325B00B371AEE0E183CE60837BD281D313131B1
S11325C03131183838333239E60CC10A276DE60C3C
S11325D05A37E60B371AEE0E183CE60837BD27C605
S11325E031313131312454C6B037E60C37E60B377C
S11325F01AEE09183CE60837BD27953131313131DF
S1132600316A0CC6B037E60C37E60B371AEE0918F8
S11326103CE60837BD27953131313131316C0CE658
S11326200C37E60B371AEE0E183CE60837BD281DAA
S11326303131313131183838333239E60CC10F2792
S11326406DE60C5C37E60B371AEE0E183CE60837DD
S1132650BD27C631313131312454C6B037E60C3789
S1132660E60B371AEE09183CE60837BD27953131D9
S1132670313131316C0CC6B037E60C37E60B371A02
S1132680EE09183CE60837BD279531313131313137
S11326906A0CE60C37E60B371AEE0E183CE60837E0
S11326A0BD281D3131313131183838333239C6B88B
S11326B037E60C37E60B371AEE09183CE60837BD47
S11326C02795313131313131E60C37E60B371AEECB
S11326D00E183CE60837BD281D3131313131183828
S11326E03833323936373C183CCE42CEBD2914BD7E
S11326F029284D2BF436BD29284D2BFA810B26F6BB
S113270032CE4265163AA600810522DDB7425BCE81
S113271042D3BD2914BD29284D2BF436BD29284D9B
S11327202BFA810B26F632CE4265163AA6008104B6
S113273022DDB7425C18383833323936373C183C1E
S113274030A60BE6083DE30CED0CA60827101AEEA4
S113275009EE0CE60018E7000818084A26F51838B0
S11327603833323936373C183C30A608C6243DE3AA
S113277009ED09A60CC60A10C6063DE309ED09E6F3
S11327800B5A4FE309ED091AEE0918A600A70C1815
S1132790383833323936373C183C30A608C6243D25
S11327A0E309ED09A60CC60A10C6063DE309ED09C6
S11327B0E60B5A4FE309ED091AEE09A60D18A70016
S11327C018383833323936373C183C30A608C61B23
S11327D03DE309188F18A6002718A10C270618082E
S11327E0180820F118E60118081808E10B26E60D70
S11327F020010C18383833323936373C183C30A6AF
S113280008C61B3DE309188F4F18E6002707180870
S113281018084C20F4A70A18383833323936373CB4
S1132820183C30A608C61B3DE309188F18A60027DC
S113283004180820F7A60C18A7001808A60B18A758
S11328400018383833323936373C183C30A608EE95
S113285009D600E700084A26FA183838333239BD59
S113286029284D2BFA81032708810726F2860020A8
S1132870028601393C183C3636361830B6100088CA
S113288040B71000860318A700CE42608604C62015
S1132890BD29F2BD29E186FFB7425FBD29284D2B32
S11328A0FAB1425F27F5B7425F810F27D78103272B
S11328B0D3810727CF186A00272B810B27C636CE72
S11328C04265163AA600183C18E600183A18A70004
S11328D0183833BD29D117CE4260BD29C1CE42601C
S11328E0BD291420B6810B269B18A602810A2594C3
S11328F0810F229018A6018101258981062285B6BF
S113290010008840B7100032323218A60218E601CF
S1132910183838393C3736C6045A2B08A600BD2966
S1132920DA0820F5323338393C37308F8300018F91
S113293035308F8300018F35308F8300018F353020
S11329408F8300018F3530C604860EA7038610A737
S1132950024FA701A70086FF5A2B2CA603B710032A
S11329600D49A7038604A7018610A7026A012BE676
S1132970B61005A402270748A7026C0020EEA600A3
S1132980B1425E260286FFB7425E308FC300018FDC
S113299035308FC300018F35308FC300018F353040
S11329A08FC300018F353338393686FFB7425E3224
S11329B03936860FB71007B6100284FEB7100232FC
S11329C0393C37E6012705E7000820F7A70033382C
S11329D0393CCE42753AE6003839F71005B7100491
S11329E0393736C6045A2B078620BD29DA20F63239
S11329F033394A2705E7000820F8E7003936373C21
S1132A00183C30A6082708CE42BABD29142006CEA9
S1132A1042BFBD291418383833323936373C183C94
S1132A2030A6082708CE42C4BD291420E8CE42C9E6
S10C2A30BD291418383833323979
S113426020202020000A0B0CFF0D0E0FFF0102037B
S1134270FF040506FF4142432044454620313233C2
S10742802034353677
S11342BA57494E310057494E32002D50322D002DA8
S11342CA50312D005355424D004341524700504C42
S10642DA41590043
S11343AD5355423100535542320053554233005355
S11343BD5542340053554235004341523100434177
S11043CD5232004341523300434152340048
S1135000030303030303030303030303030303036C
S1135010030303030303030303030303030303035C
S1135020030303030303030303030303030303034C
S1135030030303030303030303030303030303033C
S10B504003030303030303034C
S1135F00030303030303030303030303030303035D
S1135F10030303030303030303030303030303034D
S1075F20030303036D
S9030000FC
