S00A00006D61696E5F626E21
S11320008E4257BD298BBD2983CE42843C86363609
S1132010BD2821313131BD26BEB6425BF6425C5843
S11320201BB7425DB6425C36B6425B36CE50003CCE
S1132030BD210631313131B6425C36B6425B36CE13
S11320405000C6243A3CBD210631313131BD283916
S1132050B74258CE50003CB6425836CE5F003C865C
S11320602436BD2715313131313131BD284EB742C7
S113207059F7425AB6425936F6425A37CE42843C50
S1132080B6425836BD27A0313131313125BFB64271
S11320905836BD29F531B6425936F6425A37CE5034
S11320A0003CF6425837BD273E3131313132CE4201
S11320B0843C36B6425936F6425A37CE50003CF686
S11320C0425837BD24563131313131313131CE505E
S11320D0003CB6425836CE5F003C862436BD2715F8
S11320E0313131313131CE42843CB6425836BD278C
S11320F0D3313132B1425D27037E204DB64258368A
S1132100BD29D73120FE36373C183C3636363636B4
S11321101830186F03186F0218A60F18E6101B1852
S1132120A704CE42D886C8C600BD29CCCE43A0861B
S113213008C600BD29CC18A60318A10426037E24D2
S11321402D18A10F240CCE43A8860518E6033D3AAA
S1132150200FCE43C118A60318E60F101686053DBE
S11321603ABD28EEBD29024D2BFA810F26F6BD2873
S11321704E18A70018E7013637CE42D83C4F36BD7B
S113218027A03238333225E63618A60318A10F32B9
S113219025037E22534D260286FF5D2602C6FF36A6
S11321A037CE42D83C4F36BD27F7323833324C4D08
S11321B0260286FF5D2602C6FF3637CE42D83C4F44
S11321C036BD27F7323833324A5C4D260286FF5D2E
S11321D02602C6FF3637CE42D83C4F36BD27F732EB
S11321E03833324A5A4D260286FF5D2602C6FF3630
S11321F037CE42D83C4F36BD27F7323833324C5AAB
S11322004D260286FF5D2602C6FF3637CE42D83CF5
S11322104F36BD27F73238333286403618A600369B
S113222018E60137CDEE0D3C4F36BD276F323833FB
S11322303232186C03183CCDEE0D3C4F3618CE5F8D
S113224000183C862436BD27153218383238183821
S11322507E2136186D0227037E230D4C3637CE437C
S1132260A03C4F36BD27F7323833324A5C3637CE7E
S113227043A03C4F36BD27F7323833324A5A3637FB
S1132280CE43A03C4F36BD27F7323833324C5A3652
S113229037CE43A03C4F36BD27F732383332183C93
S11322A018CE43A0C6045A2B1F3718A60018E601FF
S11322B03637CE42D83C4F36BD27A032383332337E
S11322C0240B1808180820DE18387E216E183818D8
S11322D0A60018E6014D260286FF5D2602C6FF36DB
S11322E037CE42D83C4F36BD27F732383332186CDC
S11322F00286803618A6003618E60137CDEE0D3C6E
S11323004F36BD276F32383332327E216ECE43A032
S113231086044A2A037E216EE60018E1002609E6B7
S11323200118E10126022004080820E6183C18CE12
S113233043A0C6045A2B233718A60018E6014D26DD
S11323400286FF5D2602C6FF3637CE42D83C4F36A2
S1132350BD27F7323833323320DA183818A600187C
S1132360E6014D260286FF5D2602C6FF3637CE42C1
S1132370D83C4F36BD27F7323833324C4D260286CF
S1132380FF5D2602C6FF3637CE42D83C4F36BD2706
S1132390F7323833324A5C4D260286FF5D2602C688
S11323A0FF3637CE42D83C4F36BD27F7323833326A
S11323B04A5A4D260286FF5D2602C6FF3637CE42B4
S11323C0D83C4F36BD27F7323833324C5A4D2602AB
S11323D086FF5D2602C6FF3637CE42D83C4F36BD57
S11323E027F73238333286803618A6003618E601CD
S11323F037CDEE0D3C4F36BD276F323833323218AD
S11324006C03186F02CE43A08608C600BD29CC1801
S11324103CCDEE0D3C4F3618CE5F00183C8624367A
S1132420BD2715321838323818387E2136CDEE0DD6
S11324308624E600C4C0CA03E700084A26F4CE5F37
S1132440008624C603E700084A26FA3232323232C2
S113245018383833323936373C183C30A60D84C02E
S11324602620C60837E60C37E60B371AEE09183C67
S1132470E60837BD276F31313131313118383833FF
S1132480323981402636C65037E60C37E60B371A08
S1132490EE09183CE60837BD276F3131313131314F
S11324A0E60C37E60B371AEE0E183CE60837BD2764
S11324B0F73131313131183838333239E60BC1064E
S11324C0276DE60C37E60B5C371AEE0E183CE6086F
S11324D037BD27A031313131312454C69037E60C51
S11324E037E60B371AEE09183CE60837BD276F317B
S11324F031313131316C0BC69037E60C37E60B378E
S11325001AEE09183CE60837BD276F3131313131F5
S1132510316A0BE60C37E60B371AEE0E183CE60868
S113252037BD27F73131313131183838333239E694
S11325300BC101276DE60C37E60B5A371AEE0E185D
S11325403CE60837BD27A031313131312454C690DF
S113255037E60C37E60B371AEE09183CE60837BDA8
S1132560276F3131313131316A0BC69037E60C3780
S1132570E60B371AEE09183CE60837BD276F3131F0
S1132580313131316C0BE60C37E60B371AEE0E188D
S11325903CE60837BD27F73131313131183838334B
S11325A03239E60CC10A276DE60C5A37E60B371AA6
S11325B0EE0E183CE60837BD27A031313131312405
S11325C054C69037E60C37E60B371AEE09183CE68A
S11325D00837BD276F3131313131316A0CC690373C
S11325E0E60C37E60B371AEE09183CE60837BD2728
S11325F06F3131313131316C0CE60C37E60B371A5F
S1132600EE0E183CE60837BD27F731313131311869
S11326103838333239E60CC10F276DE60C5C37E6E7
S11326200B371AEE0E183CE60837BD27A0313131BE
S113263031312454C69037E60C37E60B371AEE09CD
S1132640183CE60837BD276F3131313131316C0C1C
S1132650C69037E60C37E60B371AEE09183CE60845
S113266037BD276F3131313131316A0CE60C37E631
S11326700B371AEE0E183CE60837BD27F731313117
S11326803131183838333239C6B037E60C37E60BF7
S1132690371AEE09183CE60837BD276F313131315E
S11326A03131E60C37E60B371AEE0E183CE60837E4
S11326B0BD27F731313131311838383332393637B3
S11326C03C183CCE42CEBD28EEBD29024D2BF4363B
S11326D0BD29024D2BFA810B26F632CE4265163AFD
S11326E0A600810522DDB7425BCE42D3BD28EEBDF4
S11326F029024D2BF436BD29024D2BFA810B26F607
S113270032CE4265163AA600810422DDB7425C1837
S1132710383833323936373C183C30A60BE6083D9E
S1132720E30CED0CA60827101AEE09EE0CE60018CF
S1132730E7000818084A26F518383833323936378E
S11327403C183C30A608C6243DE309ED09A60CC696
S11327500A10C6063DE309ED09E60B5A4FE309EDFD
S1132760091AEE0918A600A70C183838333239367E
S1132770373C183C30A608C6243DE309ED09A60CF5
S1132780C60A10C6063DE309ED09E60B5A4FE309F4
S1132790ED091AEE09A60D18A70018383833323996
S11327A036373C183C30A608C61B3DE309188F1881
S11327B0A6002718A10C27061808180820F118E607
S11327C00118081808E10B26E60D20010C1838380A
S11327D033323936373C183C30A608C61B3DE30972
S11327E0188F4F18E6002707180818084C20F4A77C
S11327F00A18383833323936373C183C30A608C604
S11328001B3DE309188F18A6002704180820F7A613
S11328100C18A7001808A60B18A70018383833326C
S11328203936373C183C30A608EE09D600E70008D4
S11328304A26FA183838333239BD29024D2BFA8129
S1132840032708810726F2860020028601393C18F6
S11328503C3636361830B610008840B71000860370
S113286018A700CE42608604C620BD29CCBD29BB72
S113287086FFB7425FBD29024D2BFAB1425F27F5AF
S1132880B7425F810F27D7810327D3810727CF184A
S11328906A00272B810B27C636CE4265163AA6005E
S11328A0183C18E600183A18A700183833BD29ABAD
S11328B017CE4260BD299BCE4260BD28EE20B68172
S11328C00B269B18A602810A2594810F229018A634
S11328D0018101258981062285B610008840B71040
S11328E00032323218A60218E601183838393C375B
S11328F036C6045A2B08A600BD29B40820F5323385
S113290038393C37308F8300018F35308F83000195
S11329108F35308F8300018F35308F8300018F35E1
S113292030C604860EA7038610A7024FA701A7008E
S113293086FF5A2B2CA603B710030D49A703860460
S1132940A7018610A7026A012BE6B61005A4022788
S11329500748A7026C0020EEA600B1425E2602865C
S1132960FFB7425E308FC300018F35308FC3000143
S11329708F35308FC300018F35308FC300018F3501
S11329803338393686FFB7425E323936860FB71090
S113299007B6100284FEB7100232393C37E601272D
S11329A005E7000820F7A7003338393CCE42753AD2
S11329B0E6003839F71005B71004393736C6045A1B
S11329C02B078620BD29B420F63233394A2705E780
S11329D0000820F8E7003936373C183C30A60827B1
S11329E008CE42BABD28EE2006CE42BFBD28EE185E
S11329F0383833323936373C183C30A6082708CEED
S1132A0042C4BD28EE20E8CE42C9BD28EE183838AD
S1062A1033323921
S113426020202020000A0B0CFF0D0E0FFF0102037B
S1134270FF040506FF4142432044454620313233C2
S10742802034353677
S11342BA57494E310057494E32002D50312D002DA9
S11142CA50322D005355424D004341524700DF
S11343A8535542310053554232005355423300535A
S11343B8554234005355423500434152310043417C
S11043C8523200434152330043415234004D
S1135000030303030303030303030303030303036C
S1135010030303030303030303030303030303035C
S1135020030303030303030303030303030303034C
S1135030030303030303030303030303030303033C
S10B504003030303030303034C
S1135F00030303030303030303030303030303035D
S1135F10030303030303030303030303030303034D
S1075F20030303036D
S9030000FC
